:100000006F00003D000000004204000050040000AA
:1000100000000000000000000000000000000000E0
:1000200000000000000000000000000000000000D0
:100030005004000000000000500400000000000018
:100040005004000050040000500400005004000060
:100050005004000050040000500400005004000050
:100060005004000050040000500400005004000040
:100070005004000050040000C80A0000120C0000E8
:100080005004000050040000500400005004000020
:100090005004000050040000500400000000000064
:1000A0006340050663C60506138605009305050033
:1000B0001305F0FF630C060293061000637AB60086
:1000C0006358C0001316160093961600E36AB6FE36
:1000D0001305000063E6C500B385C5403365D50050
:1000E00093D6160013561600E39606FE67800000AE
:1000F00093820000EFF05FFB13850500678002002C
:100100003305A0406348B000B305B0406FF0DFF99D
:10011000B305B04093820000EFF01FF93305A04013
:10012000678002009382000063CA0500634C0500EB
:10013000EFF09FF71385050067800200B305B0401C
:10014000E35805FE3305A040EFF01FF63305B0403D
:1001500067800200311126C406C822C6AE84AA8771
:10016000B28599C6014363D79600B684054319A0AA
:100170000143A686338496406353040001442286DB
:100180003A853EC21AC0C521024392472A87B30668
:1001900085000146B385C4406342B00463D30400C4
:1001A0008144B38596003385E5406304030263729E
:1001B000B7029307A002A38FF5FE9386F5FF637A3B
:1001C000D700238FF5FE9386E5FF6374D700A38ED7
:1001D000F5FEC2403244A24451018280B385C7007B
:1001E00003C50500B385C60005062380A5005DB7DD
:1001F000B7F700E09C4737F700E03E951C47898F32
:10020000E3CE07FE8280011106CE22CC26CA02C0B0
:100210002A836357050089E685473303A0403EC023
:10022000058A1304100619C213041004BA84591461
:100230001A853AC81AC22EC61AC45D3DA547224384
:10024000B24542479376F50F63E1A706938606030E
:1002500093F6F60F938714002380D4001A853AC8CA
:100260003EC62EC491359246A245B24742472A83E4
:1002700063FBB602824699C69306D0022380D7005C
:10028000938724003385E7409356F501AA9623808F
:10029000070085860146FD17634BD600F240624495
:1002A000D24405618280BE8461B7A29655B7B3057A
:1002B000C70083C2070003C305000506238055005D
:1002C00023806700C9BFB70700E09387470F9C43AF
:1002D0008280011122CC370400E01304440F18403F
:1002E00006CE26CA2AC01377070C9306000C630BB0
:1002F000D70002C8AE84E9E11C4089C793F707081C
:1003000091E3D1378144F24062442685D2440561AD
:1003100082803386E4409D45B28663D3C5009D4606
:10032000B70508008505084013730508631F030619
:1003300001C936C632C43AC27937B246224612479C
:1003400093253600014699E11386D6FF824793052F
:1003500037000808BE9536C43AC2392EC2458247D6
:100360001247370600E0A2461306860F0CC20D4561
:10037000B385E700014683C2050005069307060121
:1003800033832700230053006385C6008505E314EB
:10039000A6FE13864600136606F82308C1004246EF
:1003A000369710C0E34797F6B9BFFD15ADFD1C4069
:1003B00093E7070C1CC0B9B70147EDB7511122C232
:1003C00006C42E843937A24022851244310182802E
:1003D0009701002093810143138101001305000858
:1003E000731005308D46170500001305A5C1558D06
:1003F000731055301385018193850184014663563E
:10040000B50010C11105E34EB5FE17150000130528
:10041000A58E970500209385E5BE1386018163882C
:10042000C500144194C111059105E39AC5FEB7F7C3
:1004300000E0054798C39307606F7390173473000B
:100440002030371702401C47B7068000D58F1CC7E5
:10045000370700E01307470F1C4393F70708EDFF2A
:10046000F325003073263034F326203473271034FC
:100470000565130585C8E92201A0AA8703C70700FF
:1004800001E73385A74082808507CDBF130141FA7C
:10049000A2CAA6C886CC2AC02EC23284B68402CA9A
:1004A0008347040093061400A30FF10081EBE6409C
:1004B00056445245C6441301C105828036C613070F
:1004C00050026380E7021246824785451305F10119
:1004D0008297B24626C43684D247A244AA973ECA1F
:1004E000C1B7034714001306000393060003A30FCC
:1004F000E10032C6930724006312D7083E84814688
:100500008147A54511A8139727000504BA9703470B
:10051000F4FF8607B2978546130607FD1375F60F9D
:10052000E3F3A5FE99C2A30FE1003EC8E14663D301
:10053000F60036C81306C00681466318C700034795
:10054000040085460504A30FE1000346F1011307EB
:1005500040066305E6066367C702930780056300EC
:10056000F60A93073006630DF60A31D21246824727
:1005700085451305F101829726C4B9BF9306000291
:1005800036C6ADBF13075007630AE602130780079C
:100590006307E60613073007E31AE6FC3ECC9387B1
:1005A000440084403EC42685C93DE247AA8563567F
:1005B000F008C2463246381826851DA093874400AD
:1005C0003EC495C61306B6F8181093361600884038
:1005D0000146A9450D39C24632463818AA85081089
:1005E000953E1246AA85281882478297F5B593074B
:1005F000500718108546E30CF6FC8146C9BF8840B9
:10060000130686FA938744001810854613361600A1
:10061000C1453EC4CD3EC2463246AA853818C1B750
:10062000938744003EC49C40C2463246A30FF1006B
:10063000381885451305F10165B7124626856DB753
:100640001301C1FD32CA2A862EC836CC8145140852
:100650001305C03B06C63ACE3ED036C0053DB2407B
:100660001301410282802A96AA876393C700828081
:100670002380B7008507D5BF81476313F6008280CA
:100680003387F500834607003307F500850723000D
:10069000D700E5B7B7270240054798C3B717024010
:1006A0003707080123A207001307170898C3370765
:1006B0009F0098C7371702401C4393966700E3DDFD
:1006C00006FE5C43B7160240F19B93E727005CC32C
:1006D0002147DC42B18BE39EE7FEB70700E093873A
:1006E000870F23A00700B70700E09387470F130782
:1006F000000898C38280011122CC26CA06CE593F39
:10070000B7170240984FC1769386F67F1367570359
:1007100098CFD843B70520007D76758FD8C3984F02
:100720001306F60F01441367570398CFD84F3D4582
:100730004D8FD8CF37170140144393F6F6F014C30A
:10074000144393E6060D14C31443F18E14C31443EB
:100750000566130606D0D18E14C3984BB706E0FF8A
:10076000FD164D8F98CB984B371601401306068027
:10077000758F98CBB757004003D70740A166938782
:100780000740558F2390E70003D70700B7060040C6
:100790008545460745832390E70003D74700136745
:1007A00087012392E70003D747001367074023928E
:1007B000E70003D74700136707202392E70003D71A
:1007C0004700136707102392E70037E700E0232074
:1007D000D71093060002230FD740B70600802320CE
:1007E000D71061774107239EE7001307600E23941B
:1007F000E70003D70700136717002390E70003D72C
:100800000700136707402390E700B7070020938491
:1008100087009386870093878700138384003EC4F4
:1008200083D70600890613D747002A073297BD8B66
:10083000832307008A07B312F50093C2F2FFB3F2D5
:1008400072002320570083220700B397F500B3E717
:1008500057001CC3E316D3FC8566938746CEB715B5
:10086000014013850701938646CE93850580BD40E0
:10087000854283D70600890613D747002A072E979B
:10088000BD8B832307008A073396F0001346F6FFDB
:100890003376760010C31043B397F200D18F1CC398
:1008A000E319D5FC05651305057799323716014024
:1008B000A6861306068085451383018183D706002B
:1008C000890613D747002A07BD8B3297B397F500E7
:1008D0001CCBE315D3FEB7160140138604019386A3
:1008E0000680854583D70400890413D74700BD8B54
:1008F0002A07C1073697B397F5001CCBE31496FE81
:100900003D65130505A6ED3005651305C5CB0D3B0B
:10091000B704002003C7818119C3238C0180B7F776
:1009200000E088479945EFF02FF883A701816377AE
:10093000F50A23A801804DEC01443713014081469C
:10094000130303802247939716000145BA9703D7F4
:1009500007008545A1429377F70011832A073EC01F
:10096000B30767003EC282471247138607018547D7
:10097000B397C7001CCB93870402B69783C70700C1
:1009800013F7F70F8567938047CE83D30000B357E3
:10099000A74093C7F7FF858B13D64300920793F3C5
:1009A000F3002A069E971A96B397F5001CCA050510
:1009B0008900E31C55FC130580251AC836C6EFF0E4
:1009C0003F8382478545B246B395F5009247850639
:1009D00042438CCB9147E397F6F62DBFB7960400C0
:1009E000B307F5409386063EE3F8F6F423A8A1800A
:1009F00083A541810565130545CC993183A74181C4
:100A00001D476343F7060547B317F70093F7F70F42
:100A1000138704022300F700A300F7002301F70067
:100A2000A301F7009387040203C7070005669D47EB
:100A30001377F70FB355F740130546CD85893EC2AE
:100A40003AC0FD3E9247FD560247FD170566E39307
:100A5000D7FE83A741814D4785076353F700814740
:100A600023AAF1800544D1BD21476396E70293870D
:100A70000402238007007D57A380E700238107003D
:100A8000A381070045B7938704027D572380E700C1
:100A9000A3800700E5B72547E387E7FED917A946F6
:100AA000014763C8F6000567130787CDBA9703C7E8
:100AB0000700938704022380E700A380E7002381D7
:100AC000E700A381E700B9BF21113EC0B75700403E
:100AD00032C636C483D6474103D6874103D6074082
:100AE0003AC22ACA2EC813660640139706012390FD
:100AF000C740898A418381CEB7070020854623807D
:100B0000D700238F0180239E0180239D018093774E
:100B100007048DC73706002083470600D1C3B757A7
:100B200000409387074083D70701239D018023005E
:100B30000600239EF1808546238FD1809377070896
:100B40008DC73706002083470600C1CBB75700404A
:100B50009387074083D70701239D01802300060068
:100B6000239EF1808546238FD180418B0DC3B757DB
:100B7000004003D70740C1669386F6DF758F239048
:100B8000E74083C7E18181C70547238CE180524557
:100B9000C2453246A24612478247610173002030A7
:100BA00083D7C18183D5A181B756004003D60641C2
:100BB000AE97C2074206C183FD464182E3E0F6F8E4
:100BC000B7060020938606021376F60FB6978505C2
:100BD0002380C700239DB18095B783D7C18103D6F9
:100BE000A1817D458146B297C207C183636BF50041
:100BF000B706002093860602B69783C6070093F6D1
:100C0000F60FB75700402398D7400506239DC180B3
:100C1000A9BF41113EC0B757004036C483D64741F3
:100C20003AC232C61397060193F60610418399CA59
:100C300083D6474141661306F6EFF18E938707404E
:100C4000239AD7009377072099CBB757004083D6D4
:100C5000474141661306F6DFF18E239AD74013779A
:100C6000074019CBB757004003D74741C166938669
:100C7000F6BF758F239AE7403246A2461247824755
:100C8000410173002030000044454144204D53543D
:100C9000415455533A25303878204D5456414C3AFA
:100CA00025303878204D43415553453A2530387822
:100CB000204D4550433A253038780A00537461720C
:100CC0007421000064656D6F20737465703A20258F
:100CD000640D0A00256400003F065B4F666D7D07CA
:100CE0007F6F800033003500360034002500260079
:040CF00027002000B9
:100CF4000100000000000000020001002400320096
:00000001FF
