:100000006F00A042000000009C040000AA04000051
:1000100000000000000000000000000000000000E0
:1000200000000000000000000000000000000000D0
:10003000AA04000000000000AA0400000000000064
:10004000AA040000AA040000AA040000AA040000F8
:10005000AA040000AA040000AA040000AA040000E8
:10006000AA040000AA040000AA040000AA040000D8
:10007000AA040000AA040000E60B0000440D0000E2
:10008000AA040000AA040000AA040000AA040000B8
:10009000AA040000AA040000AA0400000000000056
:1000A0006340050663C60506138605009305050033
:1000B0001305F0FF630C060293061000637AB60086
:1000C0006358C0001316160093961600E36AB6FE36
:1000D0001305000063E6C500B385C5403365D50050
:1000E00093D6160013561600E39606FE67800000AE
:1000F00093820000EFF05FFB13850500678002002C
:100100003305A0406348B000B305B0406FF0DFF99D
:10011000B305B04093820000EFF01FF93305A04013
:10012000678002009382000063CA0500634C0500EB
:10013000EFF09FF71385050067800200B305B0401C
:10014000E35805FE3305A040EFF01FF63305B0403D
:1001500067800200311126C406C822C6AE84AA8771
:10016000B28599C6014363D79600B684054319A0AA
:100170000143A686338496406353040001442286DB
:100180003A853EC21AC02D2B024392472A87B306F6
:1001900085000146B385C4406342B00463D30400C4
:1001A0008144B38596003385E5406304030263729E
:1001B000B7029307A002A38FF5FE9386F5FF637A3B
:1001C000D700238FF5FE9386E5FF6374D700A38ED7
:1001D000F5FEC2403244A24451018280B385C7007B
:1001E00003C50500B385C60005062380A5005DB7DD
:1001F000B7F700E09C4737F700E03E951C47898F32
:10020000E3CE07FE8280011106CE22CC26CA02C0B0
:100210002A836357050089E685473303A0403EC023
:10022000058A1304100619C213041004BA84591461
:100230001A853AC81AC22EC61AC45D3DA547224384
:10024000B24542479376F50F63E1A706938606030E
:1002500093F6F60F938714002380D4001A853AC8CA
:100260003EC62EC491359246A245B24742472A83E4
:1002700063FBB602824699C69306D0022380D7005C
:10028000938724003385E7409356F501AA9623808F
:10029000070085860146FD17634BD600F240624495
:1002A000D24405618280BE8461B7A29655B7B3057A
:1002B000C70083C2070003C305000506238055005D
:1002C00023806700C9BFA54763E2B70285679387AC
:1002D00087DB8A05BE959841B70700209387070200
:1002E000AA9702871307F0032380E700828019474B
:1002F000E5BF1307B005CDBF1307F004F5B713072B
:100300006006DDB71307D006C5B71307D007E9BFEE
:100310001D47D9BF1307F007C1BF1307F006E9B7A0
:10032000B70700E09387470F9C438280011122CCDE
:10033000370400E01304440F184006CE26CA2AC032
:100340001377070C9306000C630BD70002C8AE842A
:10035000E9E11C4089C793F7070891E3D13781444D
:10036000F24062442685D244056182803386E440AF
:100370009D45B28663D3C5009D46B7050800850537
:10038000084013730508631F030601C936C632C44B
:100390003AC27937B24622461247932536000146C3
:1003A00099E11386D6FF8247930537000808BE956A
:1003B00036C43AC2392EC24582471247370600E09A
:1003C000A2461306860F0CC20D45B385E700014611
:1003D00083C2050005069307060133832700230027
:1003E00053006385C6008505E314A6FE1386460008
:1003F000136606F82308C1004246369710C0E3474B
:1004000097F6B9BFFD15ADFD1C4093E7070C1CC066
:10041000B9B70147EDB7511122C206C42E8439374E
:10042000A2402285124431018280970100209381ED
:10043000613D1381010013050008731005308D46DE
:1004400017050000130505BC558D73105530138535
:1004500001819385018401466356B50010C11105E1
:10046000E34EB5FE171500001305859C9705002087
:10047000938545B9138601816388C500144194C1F1
:1004800011059105E39AC5FEB7F700E0054798C34B
:1004900093070075739017347300203037170240AC
:1004A0001C47B7068000D58F1CC7370700E013072D
:1004B000470F1C4393F70708EDFFF3250030732621
:1004C0003034F3262034732710340565130505DE18
:1004D000E92201A0AA8703C7070001E73385A740E7
:1004E00082808507CDBF130141FAA2CAA6C886CC77
:1004F0002AC02EC23284B68402CA834704009306FF
:100500001400A30FF10081EBE64056445245C64467
:100510001301C105828036C6130750026380E702CB
:100520001246824785451305F1018297B24626C4DB
:100530003684D247A244AA973ECAC1B703471400E3
:100540001306000393060003A30FE10032C69307CE
:1005500024006312D7083E8481468147A54511A82F
:10056000139727000504BA970347F4FF8607B2974D
:100570008546130607FD1375F60FE3F3A5FE99C232
:10058000A30FE1003EC8E14663D3F60036C8130668
:10059000C00681466318C70003470400854605046A
:1005A000A30FE1000346F101130740066305E606C9
:1005B0006367C702930780056300F60A9307300656
:1005C000630DF60A31D21246824785451305F101C3
:1005D000829726C4B9BF9306000236C6ADBF130783
:1005E0005007630AE602130780076307E60613074E
:1005F0003007E31AE6FC3ECC9387440084403EC4B7
:100600002685C93DE247AA856356F008C2463246B0
:10061000381826851DA0938744003EC495C613064E
:10062000B6F818109336160088400146A945E13EF9
:10063000C24632463818AA850810293E1246AA85B5
:10064000281882478297F5B59307500718108546FA
:10065000E30CF6FC8146C9BF8840130686FA9387EF
:1006600044001810854613361600C1453EC4613E4D
:10067000C2463246AA853818C1B7938744003EC4A3
:100680009C40C2463246A30FF10038188545130539
:10069000F10165B7124626856DB71301C1FD32CA57
:1006A0002A862EC836CC814514081305604106C63B
:1006B0003ACE3ED036C0053DB240130141028280A1
:1006C0002A96AA876393C70082802380B700850794
:1006D000D5BF81476313F60082803387F5008346D8
:1006E00007003307F50085072300D700E5B7B727D4
:1006F0000240054798C3B71702403707080123A2F5
:1007000007001307170898C337079F0098C73717C4
:1007100002401C4393966700E3DD06FE5C43B71678
:100720000240F19B93E727005CC32147DC42B18B79
:10073000E39EE7FEB70700E09387870F23A007003B
:10074000B70700E09387470F1307000898C382801C
:10075000311122C606C826C4593FB7170240984F28
:10076000C1769386F67F1367570398CFD843B705B2
:1007700020007D76758FD8C3984F1306F60F3D4342
:100780001367570398CFD84F05454D8FD8CF3717EC
:100790000140144393F6F6F014C3144393E6060D98
:1007A00014C31443F18E14C314430566130606D014
:1007B000D18E14C3984BB706E0FFFD164D8F98CB32
:1007C000984BB715014093850580758F98CBB75727
:1007D000004003D70740A16693870740558F2390B9
:1007E000E70003D70700B70600404607458323907C
:1007F000E70003D74700136787012392E70003D779
:100800004700136707402392E70003D747001367A9
:1008100007202392E70003D74700136707102392AE
:10082000E70037E700E02320D71093060002230FEC
:10083000D740B70600802320D71061774107239E59
:10084000E7001307600E2394E70003D70700B706FD
:100850000020136717002390E70003D707001367F2
:1008600007402390E70093878600138487009386D0
:10087000860083D70600890613D747002A072E97DC
:10088000BD8B832207008A073316F3001346F6FF59
:100890003376560010C31043B317F500D18F1CC335
:1008A000E319D4FC0566B71601401306C6E193862A
:1008B00006803D43054583570600090613D74700C8
:1008C0002A073697BD8B832207008A07B315F300EA
:1008D00093C5F5FFB3F555000CC30C43B317F500F2
:1008E000CD8F1CC385679387C7E2E396C7FC9C4204
:1008F0007D771307F70FF98F9CC29C42056513059E
:10090000057793E707109CC2E530B707002037163C
:1009100001409386870013060680854583D706002D
:10092000890613D747002A07BD8B3297B397F50086
:100930001CCBE315D4FEB707002037160140938681
:10094000870013060680854583D70600890613D7DE
:100950004700BD8B2A07C107B397F50032971CCB20
:1009600093878181E392D7FE370400207D57930758
:1009700004022389E7003D6591471CCA130505A6BB
:10098000EFF01F870565130545E1013B930704025E
:1009900003C741810DCF238A018083C481811387DE
:1009A00081818346170037170140130707803706F8
:1009B000040010CB3387D40026C03AC202479246C7
:1009C0006346D71237F700E0144723A8D1803714C5
:1009D00001408144130404803707002093058700F9
:1009E00001460543214583D205003387C4401337B0
:1009F000170093D64200120793F2F200AA06169748
:100A0000A2963317E30098CA05068905E31DA6FCE4
:100A1000338797000343070005671305C7E1137386
:100A2000F30F01468543A142835505003357C34068
:100A30001347F7FF058B93D645001207BD89AA0619
:100A40002E97A2963397E30098CA05060905E31D81
:100A500056FC13058025EFF0AFF985671386C7E1D3
:100A6000B70700208545938707020357060009064C
:100A7000935647003D8BAA0641073397E500A2969F
:100A800098CA05671307C7E2E311C7FE37070020BE
:100A9000130687008545035706000906935647004D
:100AA000AA063D8B3397E500A29698CA13878181E9
:100AB000E313C7FE85041147E390E4F237F700E043
:100AC00083A601811847E38506EC6368D700158F7C
:100AD000BD66938606A6E3FDE6EA371701401307D5
:100AE0000780914614CB23A801805DB54147639DE3
:100AF000E40C03C4070103C71701A9452204598C5C
:100B00002285EFF0EFDE9375F50F0145EFF0AFFBB7
:100B1000B707002029479387070263728706A94514
:100B20002285EFF06FD84205A9454181EFF04FDCF7
:100B30009375F50F0545EFF00FF9B7070020130780
:100B4000400693870702637E87029305400622854D
:100B5000EFF08FD54205A9454181EFF06FD993752C
:100B6000F50F0945EFF02FF6B70700201307803E79
:100B700093870702636A8700A381070025A0A380EB
:100B8000070023810700CDBF9305803E2285EFF04B
:100B9000AFD19375F50F0D45EFF0EFF2B7070020D9
:100BA0009387070203C72701814611431375F70F87
:100BB0003E976311D502034607001366060823001B
:100BC000C7008506E39766FE024705071377F70F10
:100BD0003AC0EDB3B385D70003C605001376F60718
:100BE0002380C500F9BF21113EC0B757004032C66F
:100BF00036C483D6474103D6874103D607403AC25D
:100C00002ACA2EC813660640139706012390C740D0
:100C1000898A418381CEB707002085462380D7008B
:100C2000238F0180239E0180239D018093770704F9
:100C30008DC73706002083470600C1CFB757004055
:100C40009387074083D70701239D01802300060077
:100C5000239EF1808546238FD180937707088DC727
:100C60003706002083470600D5C3B7570040938757
:100C7000074083D70701239D018023000600239EA0
:100C8000F1808546238FD180418B1DCBB757004023
:100C900003D70740C1669386F6DF758F2390E74040
:100CA00083C7E18191CF03D7C181238CE18003D732
:100CB000A18193878181A380E7000547238AE18092
:100CC0005245C2453246A24612478247610173002F
:100CD000203083D7C18183D5A181B756004003D688
:100CE0000641AE97C2074206C183FD464182E3E654
:100CF000F6F6B7060020938606021376F60FB6972F
:100D000085052380C700239DB18081BF83D7C18122
:100D100003D6A1817D458146B297C207C183636B2B
:100D2000F500B706002093860602B69783C6070033
:100D300093F6F60FB75700402398D7400506239D3A
:100D4000C18099B741113EC0B757004036C483D621
:100D500047413AC232C61397060193F60610418303
:100D600099CA83D6474141661306F6EFF18E938701
:100D70000740239AD7009377072099CBB7570040B5
:100D800083D6474141661306F6DFF18E239AD7409A
:100D90001377074019CBB757004003D74741C166C7
:100DA0009386F6BF758F239AE7403246A2461247D4
:100DB0008247410173002030E4020000EE0200008F
:100DC000F2020000F8020000FE020000040300002E
:100DD0000A03000010030000140300001A030000BF
:100DE00044454144204D5354415455533A253038DD
:100DF00078204D5456414C3A25303878204D4341A7
:100E00005553453A25303878204D4550433A2530E2
:100E100038780A00537461727421000024002300A2
:0C0E2000330032002700250026000100EE
:100E2C0001000000000000003600350034002000F6
:00000001FF
